{
  "contractName": "Shop",
  "abi": [
    {
      "constant": false,
      "inputs": [],
      "name": "buyApple",
      "outputs": [],
      "payable": true,
      "stateMutability": "payable",
      "type": "function"
    },
    {
      "constant": true,
      "inputs": [],
      "name": "getMyApples",
      "outputs": [
        {
          "name": "",
          "type": "uint16"
        }
      ],
      "payable": false,
      "stateMutability": "view",
      "type": "function"
    },
    {
      "constant": false,
      "inputs": [
        {
          "name": "_applePrice",
          "type": "uint256"
        }
      ],
      "name": "sellMyApple",
      "outputs": [],
      "payable": true,
      "stateMutability": "payable",
      "type": "function"
    }
  ],
  "bytecode": "0x608060405234801561001057600080fd5b506102b6806100206000396000f3fe608060405260043610610057576000357c0100000000000000000000000000000000000000000000000000000000900463ffffffff1680630bd584931461005c578063284131c71461008a57806395ff3cc114610094575b600080fd5b6100886004803603602081101561007257600080fd5b81019080803590602001909291905050506100c7565b005b6100926101c3565b005b3480156100a057600080fd5b506100a9610236565b604051808261ffff1661ffff16815260200191505060405180910390f35b6000816000803373ffffffffffffffffffffffffffffffffffffffff1673ffffffffffffffffffffffffffffffffffffffff16815260200190815260200160002060009054906101000a900461ffff1661ffff1602905060008060003373ffffffffffffffffffffffffffffffffffffffff1673ffffffffffffffffffffffffffffffffffffffff16815260200190815260200160002060006101000a81548161ffff021916908361ffff1602179055503373ffffffffffffffffffffffffffffffffffffffff166108fc829081150290604051600060405180830381858888f193505050501580156101be573d6000803e3d6000fd5b505050565b6000803373ffffffffffffffffffffffffffffffffffffffff1673ffffffffffffffffffffffffffffffffffffffff168152602001908152602001600020600081819054906101000a900461ffff168092919060010191906101000a81548161ffff021916908361ffff16021790555050565b60008060003373ffffffffffffffffffffffffffffffffffffffff1673ffffffffffffffffffffffffffffffffffffffff16815260200190815260200160002060009054906101000a900461ffff1690509056fea165627a7a72305820315710969183ebf09614bf521561e474c38122e72a410ecfc2c5e98e3f610f5d0029",
  "source": "pragma solidity ^0.5.0;\n\ncontract Shop {\n\n  mapping (address=>uint16) myApple;\n\n  function buyApple() payable  external {\n          myApple[msg.sender]++;\n  }\n\n  function getMyApples() view external returns(uint16) {\n          return myApple[msg.sender];\n  }\n\n  function sellMyApple(uint _applePrice) payable external {\n        uint refund = (myApple[msg.sender] * _applePrice);\n        myApple[msg.sender] = 0;\n        msg.sender.transfer(refund);\n  }\n\n}\n",
  "sourcePath": "/Users/jiyeon/Desktop/ethereum_voting_dapp/react_truffle/contracts/Shop.sol",
  "compiler": {
    "name": "solc",
    "version": "0.5.0+commit.1d4f565a.Emscripten.clang"
  },
  "schemaVersion": "3.0.9",
  "updatedAt": "2019-05-27T12:56:10.234Z",
  "devdoc": {
    "methods": {}
  },
  "userdoc": {
    "methods": {}
  }
}